:100000000C942A000C9447000C9447000C94470071
:100010000C9447000C9447000C9447000C94470044
:100020000C9447000C9447000C9447000C94470034
:100030000C9447000C9498020C9447000C944700D1
:100040000C9447000C9447000C9447000C94470014
:100050000C94470011241FBECFE5D8E0DEBFCDBF12
:1000600012E0A0E6B0E0E6EEF6E002C005900D92E8
:10007000AE3CB107D9F724E0AEECB2E001C01D926E
:10008000A133B207E1F70E94D2020C9471030C94E1
:100090000000672B09F09FC0009711F4D8980895CD
:1000A0008130910511F4D99808958230910511F4A9
:1000B000DA9808958330910511F4DB98089584301F
:1000C000910511F4DC9808958530910511F4DD98BF
:1000D00008958630910511F4DE98089587309105D2
:1000E00011F4DF9808958A30910511F4C0980895AD
:1000F0008B30910511F4C19808958C30910511F45D
:10010000C29808958D30910511F4C39808958E30EA
:10011000910511F4C49808958F30910511F4C59894
:1001200008958031910511F4C698089581319105A3
:1001300011F4C79808958431910511F4A898089591
:100140008531910511F4A99808958631910511F42E
:10015000AA9808958731910511F4AB9808958831D4
:10016000910511F4AC9808958931910511F4AD9879
:1001700008958A31910511F4AE9808958B31910557
:1001800011F4AF9808958E31910511F49098089567
:100190008F31910511F4919808958032910511F4F1
:1001A000929808958132910511F4939808958232BE
:1001B000910511F4949808958332910511F495985E
:1001C00008958432910511F496980895859709F061
:1001D0009FC097980895009711F4D89A0895813098
:1001E000910511F4D99A08958230910511F4DA9AA3
:1001F00008958330910511F4DB9A089584309105B8
:1002000011F4DC9A08958530910511F4DD9A089572
:100210008630910511F4DE9A08958730910511F426
:10022000DF9A08958A30910511F4C09A08958B30B1
:10023000910511F4C19A08958C30910511F4C29A78
:1002400008958D30910511F4C39A08958E3091056B
:1002500011F4C49A08958F30910511F4C59A089548
:100260008031910511F4C69A08958131910511F4F8
:10027000C79A08958431910511F4A89A089585319B
:10028000910511F4A99A08958631910511F4AA9A5D
:1002900008958731910511F4AB9A0895883191053D
:1002A00011F4AC9A08958931910511F4AD9A08952D
:1002B0008A31910511F4AE9A08958B31910511F4AC
:1002C000AF9A08958E31910511F4909A08958F3167
:1002D000910511F4919A08958032910511F4929A42
:1002E00008958132910511F4939A0895823291050F
:1002F00011F4949A08958332910511F4959A089512
:100300008432910511F4969A0895859709F4979A85
:100310000895CF93C82F80FF07C061E070E082E2AC
:1003200090E00E94490006C060E070E082E290E048
:100330000E944900C1FF07C061E070E083E290E0E5
:100340000E94490006C060E070E083E290E00E94F5
:100350004900C2FF07C061E070E084E290E00E94C3
:10036000490006C060E070E084E290E00E9449002D
:10037000C3FF07C061E070E085E290E00E944900A1
:1003800006C060E070E085E290E00E944900CF91F5
:100390000895CF93C82F60E070E08AE190E00E945A
:1003A00049008C2F0E94890161E070E08BE190E0B0
:1003B0000E9449008FEC97E00197F1F700C0000020
:1003C00060E070E08BE190E00E9449008FEC97E0E4
:1003D0000197F1F700C00000CF91089580E00E94DE
:1003E000C90181E00E94C9010895CF93C62F8130D1
:1003F00059F480E8860F82958F700E94C9018C2F76
:100400008F700E94C9010CC0823051F480EC860FBD
:1004100082958F700E94C9018C2F8F700E94C90134
:10042000CF91089580E00E9489018FE39CE90197B4
:10043000F1F700C0000083E00E94C9018FE097E25D
:100440000197F1F700C0000083E00E94C9018FEE20
:1004500095E50197F1F700C0000083E00E94C90113
:1004600082E00E94C90182E00E94C90188E00E94E6
:10047000C90180E00E94C9018CE00E94C90180E0AE
:100480000E94C90186E00E94C9010895CF93C82F38
:1004900061E070E08AE190E00E9449008C2F829533
:1004A0008F700E94890161E070E08BE190E00E9412
:1004B00049008FEC97E00197F1F700C0000060E081
:1004C00070E08BE190E00E9449008FEC97E001978B
:1004D000F1F700C000008C2F8F700E94890161E04D
:1004E00070E08BE190E00E9449008FEC97E001976B
:1004F000F1F700C0000060E070E08BE190E00E9446
:1005000049008FEC97E00197F1F700C00000CF9110
:100510000895CF93DF93EC018881882331F02196F1
:100520000E94460289918111FBCFDF91CF910895FE
:100530001F920F920FB60F9211248F939F93EF93F8
:10054000FF93E0910E04F0910F048CB1E253FD4F44
:10055000808380910E0490910F04019690930F0474
:1005600080930E04FF91EF919F918F910F900FBE9A
:100570000F901F901895CF93DF93EA010E94F50129
:10058000CE010E948902DF91CF910895BD98BF9856
:10059000BE9ABC9880E48DB908958FB9779BFECF41
:1005A0008FB1089580EF81BB80EC84BB10920F0463
:1005B00010920E040E9412020E94EE010E94C602D6
:1005C00043EB52E064E081E00E94BB022FEF89E63A
:1005D00098E1215080409040E1F700C000004CEBD2
:1005E00052E061E082E00E94BB022FEF89E698E1D1
:1005F000215080409040E1F700C0000060E875E2C3
:1006000080E090E00E94210378942FEF89E698E142
:10061000215080409040E1F700C000008CE60E942D
:10062000CD02C82F2FEF8DE399E4215080409040F8
:10063000E1F700C000000E94EE018C2F0E944602EC
:10064000FFCF2AB128692AB920B5266820BDDC0170
:10065000CB01880F991FAA1FBB1F880F991FAA1FC4
:10066000BB1F9C01AD01220F331F441F551F220FDA
:10067000331F441F551F60E072E18AE790E00E943B
:100680004F038FEF820F89B9DA01C9010197A109E0
:10069000B109892F9A2FAB2FBB2780BD0895A1E206
:1006A0001A2EAA1BBB1BFD010DC0AA1FBB1FEE1FEC
:1006B000FF1FA217B307E407F50720F0A21BB30B37
:1006C000E40BF50B661F771F881F991F1A9469F7B3
:1006D00060957095809590959B01AC01BD01CF010F
:0606E0000895F894FFCF1D
:1006E60041542B434D47533D222573220D004F4B5A
:1006F60000626567616E00415445300D00475052F7
:1007060053204572726F720053455420475052531E
:100716000041542B53415042523D332C312C22433D
:100726006F6E74797065222C2247505253220D0049
:1007360041504E204572726F72005345542041500D
:100746004E0041542B53415042523D332C312C2202
:1007560041504E222C22777777220D004750525374
:100766002069732064697361626C6500454E204799
:100776005052530041542B5341504252203D312C8C
:10078600310D00545854206D6F6465206661696CA4
:1007960000747874206D6F6465206F6B0041542B74
:1007A600434D47463D310D0053747564656E7420A4
:1007B60063616D6520746F20636C61737300476FAE
:1007C6006F6420746F20676F0053747564656E7470
:1007D600206861736E2774207061696400596F75B3
:1007E60020686176656E27742070616964004854DC
:1007F60054502069732064697361626C65004854C3
:10080600545020456E61626C65640041542B485417
:100816005450494E49540D0050726F66696C6520FC
:100826006572726F720050726F66696C65207365CF
:10083600740041542B48545450504152413D224378
:100846004944222C310D0041542B485454505041F8
:1008560052413D2255524C222C22687474703A2F14
:100866002F68617264776172652D6261636B2E68B1
:1008760065726F6B756170702E636F6D2F73747513
:1008860064656E74732F0055524C206572726F72D8
:100896000055524C20537563636573730047455486
:1008A600206572726F7200474554207375636365E5
:1008B60073730041542B48545450414354494F4E8E
:1008C6003D300D00300041542B48545450524541A0
:1008D600440D00506C65617365207761697400543E
:1008E60065726D696E617465204572726F7200542F
:1008F60065726D696E617465640041542B48545489
:10090600505445524D0D004572726F7220646973E2
:1009160061626C696E670047505253206469736167
:10092600626C650041542B5341504252203D302C9D
:10093600310D0047726F757020333500202020532B
:0E09460074617274696E672E2E2020200000EE
:00000001FF
