S018000048617264776172655F50726F6A6563742E73726563A8
S11300000C942A000C9447000C9447000C9447006D
S11300100C9447000C9447000C9447000C94470040
S11300200C9447000C9447000C9447000C94470030
S11300300C9447000C9498020C9447000C944700CD
S11300400C9447000C9447000C9447000C94470010
S11300500C94470011241FBECFE5D8E0DEBFCDBF0E
S113006011E0A0E6B0E0EEE2FFE002C005900D92E0
S1130070AC30B107D9F721E0ACE0B1E001C01D928A
S1130080AE3AB207E1F70E94E5030C9495070C948D
S11300900000672B09F09FC0009711F4D8980895C9
S11300A08130910511F4D99808958230910511F4A5
S11300B0DA9808958330910511F4DB98089584301B
S11300C0910511F4DC9808958530910511F4DD98BB
S11300D008958630910511F4DE98089587309105CE
S11300E011F4DF9808958A30910511F4C0980895A9
S11300F08B30910511F4C19808958C30910511F459
S1130100C29808958D30910511F4C39808958E30E6
S1130110910511F4C49808958F30910511F4C59890
S113012008958031910511F4C6980895813191059F
S113013011F4C79808958431910511F4A89808958D
S11301408531910511F4A99808958631910511F42A
S1130150AA9808958731910511F4AB9808958831D0
S1130160910511F4AC9808958931910511F4AD9875
S113017008958A31910511F4AE9808958B31910553
S113018011F4AF9808958E31910511F49098089563
S11301908F31910511F4919808958032910511F4ED
S11301A0929808958132910511F4939808958232BA
S11301B0910511F4949808958332910511F495985A
S11301C008958432910511F496980895859709F05D
S11301D09FC097980895009711F4D89A0895813094
S11301E0910511F4D99A08958230910511F4DA9A9F
S11301F008958330910511F4DB9A089584309105B4
S113020011F4DC9A08958530910511F4DD9A08956E
S11302108630910511F4DE9A08958730910511F422
S1130220DF9A08958A30910511F4C09A08958B30AD
S1130230910511F4C19A08958C30910511F4C29A74
S113024008958D30910511F4C39A08958E30910567
S113025011F4C49A08958F30910511F4C59A089544
S11302608031910511F4C69A08958131910511F4F4
S1130270C79A08958431910511F4A89A0895853197
S1130280910511F4A99A08958631910511F4AA9A59
S113029008958731910511F4AB9A08958831910539
S11302A011F4AC9A08958931910511F4AD9A089529
S11302B08A31910511F4AE9A08958B31910511F4A8
S11302C0AF9A08958E31910511F4909A08958F3163
S11302D0910511F4919A08958032910511F4929A3E
S11302E008958132910511F4939A0895823291050B
S11302F011F4949A08958332910511F4959A08950E
S11303008432910511F4969A0895859709F4979A81
S11303100895CF93C82F80FF07C061E070E082E2A8
S113032090E00E94490006C060E070E082E290E044
S11303300E944900C1FF07C061E070E083E290E0E1
S11303400E94490006C060E070E083E290E00E94F1
S11303504900C2FF07C061E070E084E290E00E94BF
S1130360490006C060E070E084E290E00E94490029
S1130370C3FF07C061E070E085E290E00E9449009D
S113038006C060E070E085E290E00E944900CF91F1
S11303900895CF93C82F60E070E08AE190E00E9456
S11303A049008C2F0E94890161E070E08BE190E0AC
S11303B00E9449008FEC97E00197F1F700C000001C
S11303C060E070E08BE190E00E9449008FEC97E0E0
S11303D00197F1F700C00000CF91089580E00E94DA
S11303E0C90181E00E94C9010895CF93C62F8130CD
S11303F059F480E8860F82958F700E94C9018C2F72
S11304008F700E94C9010CC0823051F480EC860FB9
S113041082958F700E94C9018C2F8F700E94C90130
S1130420CF91089580E00E9489018FE39CE90197B0
S1130430F1F700C0000083E00E94C9018FE097E259
S11304400197F1F700C0000083E00E94C9018FEE1C
S113045095E50197F1F700C0000083E00E94C9010F
S113046082E00E94C90182E00E94C90188E00E94E2
S1130470C90180E00E94C9018CE00E94C90180E0AA
S11304800E94C90186E00E94C9010895CF93C82F34
S113049061E070E08AE190E00E9449008C2F82952F
S11304A08F700E94890161E070E08BE190E00E940E
S11304B049008FEC97E00197F1F700C0000060E07D
S11304C070E08BE190E00E9449008FEC97E0019787
S11304D0F1F700C000008C2F8F700E94890161E049
S11304E070E08BE190E00E9449008FEC97E0019767
S11304F0F1F700C0000060E070E08BE190E00E9442
S113050049008FEC97E00197F1F700C00000CF910C
S11305100895CF93DF93EC018881882331F02196ED
S11305200E94460289918111FBCFDF91CF910895FA
S11305301F920F920FB60F9211248F939F93EF93F4
S1130540FF93E091AC01F091AD018CB1E45FFE4FFB
S113055080838091AC019091AD0101969093AD019F
S11305608093AC01FF91EF919F918F910F900FBEFB
S11305700F901F901895EF92FF920F931F93CF93B4
S1130580DF93CDB7DEB7A3970FB6F894DEBF0FBEE7
S1130590CDBF8B011092AD011092AC019F938F934C
S11305A080E690E09F938F93CE0101967C019F9308
S11305B08F930E94AB04C7010E9459049FEF21EE60
S11305C084E0915020408040E1F700C00000E091B9
S11305D0AC01F091AD01E45FFE4F0F900F900F90CE
S11305E00F900F900F9080818E33C1F51092AD0162
S11305F01092AC010F2EFCE0EF2EF1E0FF2EF02D57
S1130600F70101900020E9F73197AF014C505140B8
S113061060E070E0C7010E948A04C8010E94590486
S11306208AE10E9455049FEF22E587E09150204023
S11306308040E1F700C000001092AD011092AC01BF
S1130640F70101900020E9F73197AF014C50514078
S113065060E070E0C7010E948A0413C08091AC017D
S11306609091AD0101969093AD018093AC01E0911E
S1130670AC01F091AD01E45FFE4F80818E3371F7E0
S1130680B5CFA3960FB6F894DEBF0FBECDBFDF91F2
S1130690CF911F910F91FF90EF900895CF93DF9327
S11306A0EA010E94F501CE010E948902DF91CF91F7
S11306B00895CF92DF92EF92FF921F93CF93DF932F
S11306C0EC016B017A0110EA1092AD011092AC01B9
S11306D0CE010E9459042FEF89E698E12150804011
S11306E09040E1F700C000006EE670E08CE091E01D
S11306F00E949104892BC1F00E94EE01A60161E0E1
S113070081E00E944E03AFEFB9E628E1A150B0406A
S11307102040E1F700C0000080EAECE0F1E0DF01F6
S11307201D928A95E9F71AC00E94EE01A70160E0C4
S113073082E00E944E03BFEF2DE389E4B1502040D4
S11307408040E1F700C000000E94EE01ECE0F1E01F
S1130750DF01212F1D922A95E9F7B6CFDF91CF91C2
S11307601F91FF90EF90DF90CF90089541E750E004
S113077067E770E08DE790E00E94590308951F93A6
S1130780CF93DF93182FEB0143E850E061E970E069
S11307908DE990E00E945903112331F068EA70E07A
S11307A0CE010E94BB020DC06EEB70E0CE010E9430
S11307B0BB020E94EE0143ED50E060E082E00E9443
S11307C04E03DF91CF911F91089580EF81BB80ECA0
S11307D084BB1092AD011092AC010E9412020E94DF
S11307E0EE0144EE50E064E081E00E944E032FEFFE
S11307F089E698E1215080409040E1F700C0000074
S11308004DEE50E061E082E00E944E032FEF89E656
S113081098E1215080409040E1F700C0000060E87A
S113082075E280E090E00E94270478940E94B60369
S11308302FEF89E698E1215080409040E1F700C015
S113084000006EEF70E081E00E94BF03FFCF2AB189
S113085028692AB920B5266820BDDC01CB01880FA0
S1130860991FAA1FBB1F880F991FAA1FBB1F9C019A
S1130870AD01220F331F441F551F220F331F441F86
S1130880551F60E072E18AE790E00E9468048FEFF0
S1130890820F89B9DA01C9010197A109B109892F28
S11308A09A2FAB2FBB2780BD08958CB95D9BFECFDB
S11308B00895CF93DF93EC018881882331F021964A
S11308C00E94550489918111FBCFDF91CF91089546
S11308D0A1E21A2EAA1BBB1BFD010DC0AA1FBB1F40
S11308E0EE1FFF1FA217B307E407F50720F0A21BB2
S11308F0B30BE40BF50B661F771F881F991F1A941F
S113090069F760957095809590959B01AC01BD0148
S1130910CF010895DC0101C06D9341505040E0F7D0
S11309200895FB0151915523A9F0BF01DC014D91BC
S113093045174111E1F759F4CD010190002049F028
S11309404D9140154111C9F3FB014111EFCF81E0F5
S113095090E001970895AEE0B0E0E1EBF4E00C9490
S11309606C070D891E8986E08C831A8309838FEFB7
S11309709FE79E838D83AE01475E5F4F6F89788DBD
S1130980CE0101960E94CD04EF81F885E00FF11F9E
S113099010822E96E4E00C948807ABE0B0E0E3ED1F
S11309A0F4E00C945E076C017B018A01FC01178260
S11309B01682838181FFCCC1CE0101963C01F601F0
S11309C09381F70193FD859193FF81917F018823A2
S11309D009F4BAC1853239F493FD859193FF81916D
S11309E07F01853229F4B60190E00E94C406E7CF66
S11309F0912C212C312CFFE1F315D8F08B3279F0B6
S1130A0038F4803279F08332A1F4232D20611DC0A3
S1130A108D3261F0803369F4232D216016C0832D5B
S1130A208260382EE32DE4603E2E2AC0F32DF86058
S1130A301DC037FC2DC020ED280F2A3040F08E3227
S1130A40B9F436FC81C1232D2064322E19C036FE40
S1130A5006C08AE0989E200D1124922E11C0EAE06F
S1130A602E9E200D1124222EF32DF0623F2E08C05D
S1130A708C3621F4832D8068382E02C0883641F4E8
S1130A80F70193FD859193FF81917F018111B3CF8C
S1130A90982F9F7D9554933028F40C5F1F4F9FE34C
S1130AA099830DC0833631F0833771F0833509F0B3
S1130AB059C021C0F801808189830E5F1F4F8824AB
S1130AC08394912C530113C02801F2E04F0E511C62
S1130AD0F801A080B18036FE03C0692D70E002C029
S1130AE06FEF7FEFC5010E94B9064C018201F32D1F
S1130AF0FF773F2E16C0280122E0420E511CF80158
S1130B00A080B18036FE03C0692D70E002C06FEF93
S1130B107FEFC5010E94AE064C01F32DF0683F2E15
S1130B20820133FC1BC0822D90E088169906B0F434
S1130B30B60180E290E00E94C4062A94F4CFF50145
S1130B4037FC859137FE81915F01B60190E00E94E8
S1130B50C40621102A9421E0821A91088114910478
S1130B6071F7E8C0843611F0893641F5F80137FE93
S1130B7007C060817181828193810C5F1F4F08C01F
S1130B8060817181072E000C880B990B0E5F1F4F3B
S1130B90F32DFF763F2E97FF09C0909580957095B1
S1130BA061957F4F8F4F9F4FF0683F2E2AE030E0D2
S1130BB0A3010E940007882E861845C0853731F4AA
S1130BC0232D2F7EB22E2AE030E025C0932D997F6D
S1130BD0B92E8F36C1F018F4883579F0B5C0803756
S1130BE019F0883721F0B0C0E92FE061BE2EB4FEC1
S1130BF00DC0FB2DF460BF2E09C034FE0AC0292F9E
S1130C002660B22E06C028E030E005C020E130E0C6
S1130C1002C020E132E0F801B7FE07C060817181B3
S1130C20828193810C5F1F4F06C06081718180E0D7
S1130C3090E00E5F1F4FA3010E940007882E8618C4
S1130C40FB2DFF773F2E36FE0DC0232D2E7FA22EC7
S1130C50891458F434FE0BC032FC09C0832D8E7EF7
S1130C60A82E05C0B82CA32C03C0B82C01C0B92CE5
S1130C70A4FE0FC0FE01E80DF11D8081803321F434
S1130C809A2D997EA92E09C0A2FE06C0B394B394EE
S1130C9004C08A2D867809F0B394A3FC11C0A0FE89
S1130CA006C0B21488F4280C922C9B180EC0B214FF
S1130CB060F4B60180E290E00E94C406B394F7CFDA
S1130CC0B21418F42B1802C0982C212CA4FE10C0C6
S1130CD0B60180E390E00E94C406A2FE17C0A1FC06
S1130CE003C088E790E002C088E590E0B6010CC03C
S1130CF08A2D867859F0A1FE02C08BE201C080E201
S1130D00A7FC8DE2B60190E00E94C406891438F471
S1130D10B60180E390E00E94C4069A94F7CF8A94C7
S1130D20F301E80DF11D8081B60190E00E94C40634
S1130D308110F5CF222009F442CEB60180E290E082
S1130D400E94C4062A94F6CFF6018681978102C0D8
S1130D508FEF9FEF2B96E2E10C947A07FC0105904C
S1130D60615070400110D8F7809590958E0F9F1FA9
S1130D700895FC016150704001900110D8F78095EE
S1130D8090958E0F9F1F08950F931F93CF93DF931A
S1130D90FB01238121FD03C08FEF9FEF2CC022FFB5
S1130DA016C046815781248135814217530744F484
S1130DB0A081B1819D012F5F3F4F318320838C93AC
S1130DC0268137812F5F3F4F3783268314C08B01E1
S1130DD0EC01FB010084F185E02D0995892BE1F6F6
S1130DE0D80116968D919C911797019617969C930E
S1130DF08E931697CE01DF91CF911F910F91089595
S1130E00FA01AA27283051F1203181F1E8946F9337
S1130E106E7F6E5F7F4F8F4F9F4FAF4FB1E03ED0DD
S1130E20B4E03CD0670F781F891F9A1FA11D680F7B
S1130E30791F8A1F911DA11D6A0F711D811D911DAE
S1130E40A11D20D009F468943F912AE0269F112423
S1130E503019305D3193DEF6CF010895462F477087
S1130E60405D4193B3E00FD0C9F7F6CF462F4F70E2
S1130E70405D4A3318F0495D31FD4052419302D040
S1130E80A9F7EACFB4E0A6959795879577956795E6
S1130E90BA95C9F700976105710508959B01AC01E6
S1130EA00A2E06945795479537952795BA95C9F70D
S1130EB0620F731F841F951FA01D08952F923F92E8
S1130EC04F925F926F927F928F929F92AF92BF9256
S1130ED0CF92DF92EF92FF920F931F93CF93DF9302
S1130EE0CDB7DEB7CA1BDB0B0FB6F894DEBF0FBE5F
S1130EF0CDBF09942A88398848885F846E847D84AC
S1130F008C849B84AA84B984C884DF80EE80FD80AD
S1130F100C811B81AA81B981CE0FD11D0FB6F89423
S1110F20DEBF0FBECDBFED010895F894FFCFE4
S1130F2E41542B434D47533D222573220D004F4B05
S1130F3E004572726F7200626567616E00415445BE
S1130F4E300D00545854206D6F6465206661696CD1
S1130F5E00747874206D6F6465206F6B0041542BA0
S1130F6E434D47463D310D0053747564656E7420D0
S1130F7E63616D6520746F20636C617373005374C9
S1130F8E7564656E7420686176656E277420706171
S1130F9E696400596F7520686176656E27742070D8
S1130FAE6169640047726F7570203335002020200C
S1130FBE5374617274696E672E2E202020002B39B3
S10F0FCE34373136383330383432000008
S9030000FC
