S00D000061733630382E73726563A5
S11300000C9452000C9467000C9467000C946700E5
S11300100C9467000C9467000C9467000C946700C0
S11300200C9467000C9467000C9467000C946700B0
S11300300C9467000C9467000C9467000C946700A0
S11300400C9467000C9467000C9467000C94670090
S11300500C9467000C9467000C9467000C94670080
S11300600C9467000C94670057040F0412041504E1
S11300705404540418041B041E04210424042704F7
S11300802A042D04300433043604390454043C0493
S113009054043F04540454044204450448044B04E7
S11300A04E04510411241FBECFEFD8E0DEBFCDBFF4
S11300B013E0A0E0B1E0E4E3FAE002C005900D92A1
S11300C0A23EB107D9F70E9424030C9418050C949E
S11300D0000084B1807F84B95E9A5B9882E08A953F
S11300E0F1F700C02C9A92E09A95F1F700C083B121
S11300F08295807F92E09A95F1F700C02C9895E064
S11301009A95F1F700002C9A92E09A95F1F700C0C5
S113011093B192E09A95F1F700C02C9895E09A95E6
S1130120F1F700008823F4F25E9884B18F6084B9FB
S11301300895282F22952F708F70611102C05B984B
S113014001C05B9A92E09A95F1F700C02C9A95B1A0
S1130150907F922B95B995E09A95F1F700002C9831
S113016095E09A95F1F700002C9A95B1907F892B30
S113017085B985E08A95F1F700002C9895E09A9569
S1130180F1F700000E94690008950F931F93CF9325
S1130190DF938C01FC018081882309F18532A9F465
S11301A0E8012196F80181818053883020F461E0D0
S11301B00E9499000EC061E085E20E94990061E00E
S11301C0F80181810E94990004C061E00E949900B5
S11301D0E8018E010F5F1F4F89818111DFCFDF910D
S11301E0CF911F910F910895EF92FF920F931F9358
S11301F0CF93DF9300D000D01F92CDB7DEB77B0141
S1130200FE01319625E0DF011D922A95E9F700975A
S113021059F035962AE030E0B9010E94EA0482934D
S1130220862F972F0097C1F7BFEFEB16FB0669F4F3
S1130230898181111EC0FE01329600E010E00F5F3B
S11302401F4F81918823D9F310C005E010E00E19E7
S11302501F090BC0F80181918F0161E0805D0E944C
S113026099000E151F05B1F711C0053011051CF0DA
S11302700DC000E010E081E090E08C0F9D1F080F9E
S1130280191F7E0196E0E90EF11CE4CF0F900F9048
S11302900F900F900F90DF91CF911F910F91FF90CE
S11302A0EF900895843178F4623031F0633031F0A6
S11302B0613029F4806403C08C5E01C08C5A60E014
S11302C080680E94990008950F931F93CF93DF9342
S11302D0C82F2FEF86E791E0215080409040E1F74E
S11302E000C0000084B18F6084B9249A539A569A4E
S11302F085B1807F85B92C985E985B9800C000C05A
S113030000002C9A299A25E02A95F1F700002C98F0
S113031085E08A95F1F700000E94690060E08C2F67
S11303208C600E94990060E088E20E94990060E07D
S113033080E40E949900C0E0D1E000E411E061E0B3
S113034089910E949900C017D107C9F760E080E045
S11303500E945201DF91CF911F910F9108951F9335
S1130360CF93DF93D82F162F0E945201D03140F43F
S1130370CD2F80E491E00E94C500CF5FC031C9F762
S1130380612F8D2F0E945201DF91CF911F9108950B
S113039038983A98409A429A0895CF93C82F61E0CA
S11303A080E00E94AF0161E080E00E9452018C2F46
S11303B00E9405040E94C5002FEF87EA91E62150B0
S11303C080409040E1F700C00000CF91089560E0C4
S11303D081E00E94990060E080E00E94520182E482
S11303E091E00E94C5000E949E040E94CD0160E03D
S11303F081E00E94990060E080E00E9452018BE459
S113040091E00E94C50061E080E00E94520186E50F
S113041091E00E94C5002FEF87EA91E621508040C9
S11304209040E1F700C0000060E081E00E94990084
S113043060E080E00E94520183E691E00E94C500E2
S11304400E945A040E94CD0160E081E00E9499005C
S113045060E080E00E94520184E791E00E94C500C0
S113046081E090E00E9477040E94CD0160E081E089
S11304700E94990060E080E00E94520184E891E0CB
S11304800E94C5000E945A040E94CD0160E081E0F0
S11304900E94990060E080E00E94520184E791E0AC
S11304A00E94C50082E090E00E9477040E94CD0182
S11304B060E081E00E94990060E080E00E945201C7
S11304C085E991E00E94C5000E948E040E94CD013E
S11304D060E081E00E94990060E080E00E945201A7
S11304E083EA91E00E94C50082E090E00E94AE049D
S11304F00E94CD012FEF8FE493EC21508040904077
S1130500E1F700C0000060E081E00E9499000895D6
S1130510CF93DF9360E081E00E94990060E080E087
S11305200E9452018DEA91E00E94C50061E080E0E2
S11305300E94520186EB91E00E94C5000E945A0479
S1130540892BE1F760E081E00E94990060E080E09F
S11305500E94520183EC91E00E94C5002FEF83EDCD
S113056090E3215080409040E1F700C0000061E03A
S113057080E00E9452018FEC91E00E94C5002FEFB1
S113058083ED90E3215080409040E1F700C00000EB
S113059060E081E00E94990060E080E00E945201E6
S11305A089ED91E00E94C50081E090E00E9477040B
S11305B00E94CD0160E081E00E94990060E080E04B
S11305C00E94520189EE91E00E94C5000E94CB0472
S11305D0EC010E94CD012097D1F460E081E00E94FB
S11305E0990061E080E00E94520166E070E080E0E2
S11305F090E00E94F40045982FEF83E294EF21509D
S113060080409040E1F700C00000459A0DC060E0D2
S113061081E00E94990061E080E00E94520166E05E
S113062070E0CE010E94F4002FEF8FE493EC215090
S113063080409040E1F700C0000060E081E00E944B
S11306409900DF91CF91089580E00E9464010E9497
S113065048030E94C8013D9A459A60E080E00E94E8
S113066052018DEA91E00E94C5002FEF87EA91E6DE
S1130670215080409040E1F700C00000309903C051
S11306800E94E701EACF3299E8CF0E948802E5CFC1
S11306901092C50080E18093C400E1ECF0E0808119
S11306A088618083E2ECF0E080818E60808308952D
S11306B0E0ECF0E0908195FFFDCF8093C6000895B3
S11306C0E0ECF0E080818823ECF78091C600089587
S11306D0CF93C82F8FEE0E94580381E00E945803E5
S11306E08FEF0E9458038FEF0E9458038FEF0E94F0
S11306F058038FEF0E94580381E00E94580380E062
S11307000E9458038C2F0E945803CF9108950F9391
S11307101F93CF93DF930E9460030E9460030E94A3
S113072060030E9460030E9460030E9460030E94B1
S113073060030E946003C82F0E946003D0E0DC2F96
S1130740CC27C82B22970E946003082F10E0C230E8
S1130750D10539F40E946003082F10E0102F002700
S11307600EC0239761F40115110549F40E9460033A
S1130770082F0E94600310E0102F0027082B0E940E
S113078060030E946003C801DF91CF911F910F9114
S11307900895CF93DF930E9460030E9460030E9438
S11307A060030E9460030E9460030E9460030E9431
S11307B060030E9460030E9460030E946003813012
S11307C059F40E946003C82F0E946003D0E0DC2F1C
S11307D0CC27C80FD11D0DC0893049F00E94600399
S11307E00E946003C82FD0E0DC2FCC2702C0C0E0F9
S11307F0D0E00E9460030E9460030E9460030E9494
S11308006003CE01DF91CF91089590E08E31910580
S113081008F04AC0FC01EC5CFF4F0C94FE048FEF1F
S113082091E0089584E192E008958EE192E00895C4
S11308308DE292E008958AE492E0089582E692E0DF
S1130840089587E792E0089581E992E0089581EAA6
S113085092E0089580EB92E0089581EC92E008958F
S11308608AED92E008958FEE92E0089585E093E09A
S113087008958DE193E0089583E393E0089583E47C
S113088093E0089589E593E008958DE693E0089553
S11308908DE793E008958EE893E0089586EA93E067
S11308A0089589EB93E0089583ED93E0089586EF2E
S11308B091E0089583E090E00E94680381E00E9443
S11308C0580380E00E94580385E00E9458030E9468
S11308D087032FEF39E648E1215030404040E1F7EB
S11308E000C00000892B31F780E090E00895CF9399
S11308F0C82F84E090E00E94680382E00E945803BD
S11309008C2F0E94580380E00E94580387E08C0FCC
S11309100E9458030E948703CF91089583E090E0DA
S11309200E94680385E00E94580380E00E945803F7
S113093089E00E9458030E948703089583E090E0B1
S11309400E9468038DE00E94580380E00E945803CF
S113095081E10E9458030E9487030895CF93C82F12
S113096086E090E00E94680386E00E94580381E0DC
S11309700E94580380E00E9458038C2F0E94580361
S113098080E00E9458038EE08C0F0E9458030E945E
S11309908703CF91089588E090E00E94680384E083
S11309A00E94580381E00E94580380E00E9458038B
S11309B081E00E94580380E00E9458038FEF0E9458
S11309C0580381E00E9458038EE00E9458030E945D
S11309D0C903089597FB072E16F4009407D077FDFA
S11309E009D00E94040507FC05D03EF4909581953A
S11309F09F4F0895709561957F4F0895EE0FFF1FE7
S1130A000590F491E02D0994AA1BBB1B51E107C08A
S1130A10AA1FBB1FA617B70710F0A61BB70B881F8A
S1130A20991F5A95A9F780959095BC01CD01089519
S1070A30F894FFCF64
S1130A340000040E0400000000040E1F0E04000055
S1130A440001010505151500000000040414140038
S1130A5400000000001010001F0E0404040404002D
S1130A64110A040A110000001E1F1F1F111F1F007A
S1130A74200044656C6574696E6700456E726F6C22
S1130A846C6D656E7400506C6163652046696E67B5
S1130A9465720046696E6765722052656164696EA9
S1130AA46720310047656E65726174696E672063FF
S1130AB46861720046696E67657220526561646993
S1130AC46E6720320047656E6572617465207465D3
S1130AD46D700053746F72696E672E2E0057656CC7
S1130AE4636F6D652100506C6163652066696E6790
S1130AF46572005363616E6E696E672E2E2E004319
S1130B046F6D706C657465640067656E657261749D
S1130B14696E672063686172005365617263686912
S1130B246E672E2E2E00636F6D706C6574650065A0
S1130B3472726F7220726563656976696E67206488
S1130B44617461006E6F2066696E67657200666128
S1130B54696C20746F20656E726F6C6C00646973C9
S1130B646F726465726C792066696E6765727072FF
S1130B74696E7420696D61676500736D616C6C20C6
S1130B8466696E6765727072696E7420696D6167F7
S1130B94650066696E67657220646F65736E92742E
S1130BA4206D61746368006661696C20746F2066EB
S1130BB4696E6420746865206D61746368696E6726
S1130BC4006661696C20746F20636F6D62696E6581
S1130BD400696E76616C69642050616765494400FC
S1130BE4696E76616C69642074656D706C6174659A
S1130BF4006572726F722075706C6F6164696E67E0
S1130C042074656D706C6174650063616E92742008
S1130C1464617461207061636B616765732E006540
S1130C2472726F722075706C6F6164696E6720698B
S1130C346D616765006661696C20746F2064656C1E
S1130C446574652074656D706C61746500666169B2
S1130C546C20746F20636C656172206C69627261CC
S1130C6472790077726F6E672070617373776F7235
S1130C74642100696E76616C6964207072696D61C7
S1130C84727920696D616765006572726F7220778D
S1130C94726974696E6720666C61736800756E644A
S1130CA46566696E6564206572726F7200696E763A
S1130CB4616C696420726567697374657200696E36
S1130CC4636F727265637420636F6E6669677572AD
S1130CD46174696F6E0077726F6E67206E6F7465EE
S1130CE47061642070616765006661696C65642085
S1130CF4636F6D6D756E69636174696F6E20706F77
S1130D04727400556E6B6E6F776E206572726F72BB
S1050D140000D9
S9030000FC
