:100000000C9452000C9467000C9467000C946700E9
:100010000C9467000C9467000C9467000C946700C4
:100020000C9467000C9467000C9467000C946700B4
:100030000C9467000C9467000C9467000C946700A4
:100040000C9467000C9467000C9467000C94670094
:100050000C9467000C9467000C9467000C94670084
:100060000C9467000C9467003F03F702FA02FD024C
:100070003C033C0300030303060309030C030F03C3
:100080001203150318031B031E0321033C0324035F
:100090003C0327033C033C032A032D0330033303B3
:1000A0003603390311241FBECFEFD8E0DEBFCDBF2A
:1000B00013E0A0E0B1E0EAE5F7E002C005900D92A0
:1000C000A83DB107D9F70E9409020C94AB030C9428
:1000D000000084B1807F84B95E9A5B9882E08A9543
:1000E000F1F700C02C9A92E09A95F1F700C083B125
:1000F0008295807F92E09A95F1F700C02C9895E068
:100100009A95F1F700002C9A92E09A95F1F700C0C9
:1001100093B192E09A95F1F700C02C9895E09A95EA
:10012000F1F700008823F4F25E9884B18F6084B9FF
:100130000895282F22952F708F70611102C05B984F
:1001400001C05B9A92E09A95F1F700C02C9A95B1A4
:10015000907F922B95B995E09A95F1F700002C9835
:1001600095E09A95F1F700002C9A95B1907F892B34
:1001700085B985E08A95F1F700002C9895E09A956D
:10018000F1F700000E94690008950F931F93CF9329
:10019000DF938C01FC018081882309F18532A9F469
:1001A000E8012196F80181818053883020F461E0D4
:1001B0000E9499000EC061E085E20E94990061E012
:1001C000F80181810E94990004C061E00E949900B9
:1001D000E8018E010F5F1F4F89818111DFCFDF9111
:1001E000CF911F910F910895843178F4623031F0EE
:1001F000633031F0613029F4806403C08C5E01C04B
:100200008C5A60E080680E94990008950F931F93B4
:10021000CF93DF93C82F2FEF86E791E021508040E6
:100220009040E1F700C0000084B18F6084B9249A47
:10023000539A569A85B1807F85B92C985E985B98C1
:1002400000C000C000002C9A299A25E02A95F1F7F9
:1002500000002C9885E08A95F1F700000E94690063
:1002600060E08C2F8C600E94990060E088E20E9420
:10027000990060E080E40E949900C0E0D1E000E4D1
:1002800011E061E089910E949900C017D107C9F778
:1002900060E080E00E94F400DF91CF911F910F9108
:1002A00008951F93CF93DF93D82F162F0E94F40049
:1002B000D03140F4CD2F80E491E00E94C500CF5FA3
:1002C000C031C9F7612F8D2F0E94F400DF91CF91CB
:1002D0001F910895019719F4449A459808954498F8
:1002E0004598089538983A98409A429A0895CF933D
:1002F000C82F61E080E00E94510161E080E00E942F
:10030000F4008C2F0E94ED020E94C5002FEF87EAB7
:1003100091E6215080409040E1F700C00000CF916D
:10032000089560E081E00E94990060E080E00E9412
:10033000F40084EA91E00E94C50061E080E00E9440
:10034000F4008DEA91E00E94C5000E9442030E94E1
:10035000770160E081E00E94990060E080E00E9407
:10036000F4008AEB91E00E94C5002FEF83ED90E34B
:10037000215080409040E1F700C0000061E080E043
:100380000E94F40086EC91E00E94C5002FEF83EDFF
:1003900090E3215080409040E1F700C0000060E011
:1003A00081E00E94990060E080E00E94F40080ED0E
:1003B00091E00E94C50081E090E00E945F030E94EE
:1003C000770182E090E00E945F030E9477010E9423
:1003D00076030E94770160E081E00E94990060E06E
:1003E00080E00E94F40080EE91E00E94C5000E942F
:1003F00086030E9477012FEF8FE493EC2150804019
:100400009040E1F700C0000060E081E00E949900A8
:10041000089580E00E9406010E9430020E9472014D
:100420003D9A88B1806388B981E090E00E946A01BA
:1004300060E081E00E94990060E080E00E94F400AA
:1004400084EA91E00E94C5002FEF87EA91E62150EF
:1004500080409040E1F700C000000E949101ECCF85
:100460001092C50080E18093C400E1ECF0E080814F
:1004700088618083E2ECF0E080818E608083089563
:10048000E0ECF0E0908195FFFDCF8093C6000895E9
:10049000E0ECF0E080818823ECF78091C6000895BD
:1004A000CF93C82F8FEE0E94400281E00E9440024D
:1004B0008FEF0E9440028FEF0E9440028FEF0E9458
:1004C00040028FEF0E94400281E00E94400280E0E3
:1004D0000E9440028C2F0E944002CF9108950F93FA
:1004E0001F93CF93DF930E9448020E9448020E940C
:1004F00048020E9448020E9448020E9448020E944C
:1005000048020E944802C82F0E944802D0E0DC2F17
:10051000CC27C82B22970E944802082F10E0C23037
:10052000D10539F40E944802082F10E0102F00274F
:100530000EC0239761F40115110549F40E94480289
:10054000082F0E94480210E0102F0027082B0E945D
:1005500048020E944802C801DF91CF911F910F917C
:100560000895CF93DF930E9448020E9448020E94A0
:1005700048020E9448020E9448020E9448020E94CB
:1005800048020E9448020E9448020E9448028130AC
:1005900059F40E944802C82F0E944802D0E0DC2F84
:1005A000CC27C80FD11D0DC0893049F00E944802E8
:1005B0000E944802C82FD0E0DC2FCC2702C0C0E048
:1005C000D0E00E9448020E9448020E9448020E9415
:1005D0004802CE01DF91CF91089590E08E319105D0
:1005E00008F04AC0FC01EC5CFF4F0C94A50386EFB9
:1005F00091E008958BE092E0089585E192E00895FE
:1006000084E292E0089581E492E0089589E592E021
:1006100008958EE692E0089588E892E0089588E9CA
:1006200092E0089587EA92E0089588EB92E00895B9
:1006300081ED92E0089586EE92E008958CEF92E0CD
:10064000089584E193E008958AE293E008958AE3AF
:1006500093E0089580E593E0089584E693E008959B
:1006600084E793E0089585E893E008958DE993E0A9
:10067000089580EB93E008958AEC93E008958DEE61
:1006800091E0089583E090E00E94500281E00E9492
:10069000400280E00E94400285E00E9440020E94E9
:1006A0006F022FEF39E648E1215030404040E1F73A
:1006B00000C00000892B31F780E090E00895CF93CF
:1006C000C82F84E090E00E94500282E00E94400225
:1006D0008C2F0E94400280E00E94400287E08C0F35
:1006E0000E9440020E946F02CF91089583E090E043
:1006F0000E94500285E00E94400280E00E94400279
:1007000089E00E9440020E946F02089588E090E014
:100710000E94500284E00E94400281E00E94400258
:1007200080E00E94400281E00E94400280E00E943E
:1007300040028FEF0E94400281E00E9440028EE062
:100740000E9440020E94B1020895EE0FFF1F059023
:0A075000F491E02D0994F894FFCF16
:10075A000000040E0400000000040E1F0E04000036
:10076A000001010505151500000000040414140019
:10077A0000000000001010001F0E0404040404000E
:10078A00110A040A110000001E1F1F1F111F1F005B
:10079A002000456E726F6C6C6D656E7400506C61F2
:1007AA0063652046696E6765720046696E676572A1
:1007BA002052656164696E6720310047656E657213
:1007CA006174696E6720636861720046696E676565
:1007DA00722052656164696E6720320047656E65F2
:1007EA00726174652074656D700053746F72696EFE
:1007FA00672E2E0057656C636F6D652100506C6122
:10080A0063652066696E676572005363616E6E691F
:10081A006E672E2E2E00436F6D706C6574656400D2
:10082A0067656E65726174696E67206368617200DC
:10083A00536561726368696E672E2E2E00636F6D51
:10084A00706C657465006572726F7220726563659B
:10085A006976696E672064617461006E6F206669EB
:10086A006E676572006661696C20746F20656E72CE
:10087A006F6C6C006469736F726465726C79206660
:10088A00696E6765727072696E7420696D616765F9
:10089A0000736D616C6C2066696E6765727072694F
:1008AA006E7420696D6167650066696E676572209E
:1008BA00646F65736E9274206D617463680066611B
:1008CA00696C20746F2066696E6420746865206D97
:1008DA0061746368696E67006661696C20746F2071
:1008EA00636F6D62696E6500696E76616C6964201A
:1008FA0050616765494400696E76616C6964207469
:10090A00656D706C617465006572726F72207570C6
:10091A006C6F6164696E672074656D706C61746573
:10092A000063616E92742064617461207061636B0C
:10093A00616765732E006572726F722075706C6FD5
:10094A006164696E6720696D616765006661696CDB
:10095A0020746F2064656C6574652074656D706CB5
:10096A00617465006661696C20746F20636C6561EF
:10097A0072206C6962726172790077726F6E672099
:10098A0070617373776F72642100696E76616C6946
:10099A0064207072696D61727920696D61676500A2
:1009AA006572726F722077726974696E6720666CFD
:1009BA0061736800756E646566696E656420657248
:1009CA00726F7200696E76616C696420726567691C
:1009DA007374657200696E636F7272656374206303
:1009EA006F6E66696775726174696F6E0077726F90
:1009FA006E67206E6F746570616420706167650050
:100A0A006661696C656420636F6D6D756E6963619B
:100A1A0074696F6E20706F727400556E6B6E6F77AB
:080A2A006E206572726F72000C
:00000001FF
